:0400000049EF04F0D0
:1000080000C017F001C016F00DC015F09EA645D12E
:100018009E96C9CF37F03050000A0CE13750A00A3D
:1000280009E1336A346A03019D6B010E9E6F21DB7F
:10003800818481883050010A10E13750A00A0DE010
:100048003750F00A0AE0470E3324E16E000E3420E0
:10005800E26E37C0E6FF334A342A3050010AD8A48A
:100068008CD03750F00AD8A488D0356A366A000E8A
:10007800365C02E1050E355C11E2750E3524E16E41
:10008800030E3620E26E470E3524E96E000E362048
:10009800EA6EEECFE6FF354A362AE9D7030175C383
:1000A80038F076C325F077C326F089C3E1FF8AC309
:1000B800E2FF78C3E6FF010E8925E16E000E8A2172
:1000C800E26E79C3E6FF356A366A8C51365C02E126
:1000D8008B51355C17E27F0E3524E16E030E362016
:1000E800E26E050E3524006E000E3620016E470EB6
:1000F8000024E96E000E0120EA6EEECFE6FF354AD5
:10010800362AE3D73850000A1BE12550040A17E1C4
:100118000A0E8B6F000E8C6F89C3E9FF8AC3EAFF52
:10012800EECF78F3010E8925E96E000E8A21EA6E7A
:10013800EECF79F3750E9D6F030E9E6F78DB17D0A7
:10014800010E9D6F750E9E6F030E9F6F7F0EA06F41
:10015800030EA16FB7DA020E03019D6F750E9E6F35
:10016800030E9F6F7F0EA06F030EA16FABDA030122
:100178009D6B9E6B7EDA819481983A50000A0FE15C
:100188003750A10A0CE103013DC0C9FF010E336ECF
:10019800000E346E010E9D6F010E9E6F6ADA3A50A2
:1001A800010A10E13750A10A0DE03750F10A0AE0C0
:1001B8003D0E3324E96E000E3420EA6EEECFC9FFFF
:1001C800334A342A3A50010A08E13750F10A05E166
:1001D8000301010E9D6F9E6B4CDA3B50000A0FE144
:1001E8003750A20A0CE10301020E9D6F010E9E6FAB
:1001F80040DA73C0C9FF010E336E000E346E3B50F7
:10020800010A10E13750A20A0DE03750F20A0AE05D
:10021800730E3324E96E000E3420EA6EEECFC9FF68
:10022800334A342A3B50010A08E13750F20A05E103
:100238000301020E9D6F9E6B1CDA3950000A0FE114
:100248003750A30A0CE10301030E9D6F010E9E6F48
:1002580010DA18C0C9FF010E336E000E346E395023
:10026800010A10E13750A30A0DE03750F30A0AE0FB
:10027800180E3324E96E000E3420EA6EEECFC9FF63
:10028800334A342A3950010A08E13750F30A05E1A4
:100298000301030E9D6F9E6BECD99EAA75D09E9AA2
:1002A8009AD900C02DF02450020A15E103018C519F
:1002B800285C02E18B51275C0BE2730E2724E16E68
:1002C800000E2820E26E2DC0E6FF274A282A03D018
:1002D800246A010E236E2450000A0BE12350000A01
:1002E80008E12D503A0A05E1010E246E276A286AB2
:1002F80081842450010A13E12D503A0A10E0000EBF
:10030800285C02E1050E275C0AE2690E2724E16EEB
:10031800000E2820E26E2DC0E6FF274A282A245026
:10032800010A27E1000E281802E1050E271821E12D
:1003380000016951381819E16AC03CF06BC060F0DF
:1003480089C3E1FF8AC3E2FF6CC0E6FF010E030127
:100358008925E16E000E8A21E26E6DC0E6FF386ADB
:10036800276A286A020E246E04D0246A236A276A40
:10037800286A2350010A08E103018194690E9D6FE0
:10038800000E9E6F54DA236AA4AA75D0A49A1AD9CB
:1003980000C02BF02250020A15E103018C512A5C9F
:1003A80002E18B51295C0BE2730E2924E16E000EE9
:1003B8002A20E26E2BC0E6FF294A2A2A03D0226AA5
:1003C800010E2C6E2250000A0BE12C50000A08E1A5
:1003D8002B503A0A05E1010E226E296A2A6A8188A1
:1003E8002250010A13E12B503A0A10E0000E2A5C51
:1003F80002E1050E295C0AE2690E2924E16E000E6D
:100408002A20E26E2BC0E6FF294A2A2A2250010A36
:1004180027E1000E2A1802E1050E291821E1000142
:100428006951381819E16AC03CF06BC060F089C3A3
:10043800E1FF8AC3E2FF6CC0E6FF010E03018925D4
:10044800E16E000E8A21E26E6DC0E6FF386A296A05
:100458002A6A020E226E04D0226A2C6A296A2A6A43
:100468002C50010A08E103018198690E9D6F000E66
:100478009E6FDDD92C6A17C000F016C001F015C0B8
:040488000DF0110062
:10048C00A80E0301916F050E926FAD0E936F030EC4
:10049C00946FDE0E0001616F050E626F000E636FCC
:1004AC00000E646FFF0E656FFF0E666F000E676FB8
:1004BC00000E686F400E5B6E050E5C6E000E5D6E7E
:1004CC00000E5E6EAC8A900EAB6E948E949C9EAABF
:0A04DC0003D0AECF00F0FBD71200F2
:1004E600C00E0301916F050E926FAD0E936F030E52
:1004F600946FCC0E0001616F050E626F000E636F84
:10050600000E646FFF0E656FFF0E666F000E676F5D
:10051600000E686FB60E5B6E050E5C6E000E5D6EAD
:10052600000E5E6E728A900E716E938E939CA4AAD4
:0A05360003D074CF00F0FBD71200D1
:0A054000000EACB2010E006E1200B6
:10054A00C69AFF0E0301956FFF0E966FFF0E976F07
:10055A00FF0E986FFF0E8D6FFF0E8E6FFF0E8F6F5F
:10056A00FF0E906F949A9951040A02E1948601D081
:10057A0094969488C66AC79CC79E9951C6129B5185
:10058A00C6129A51C7129B5305E09C51000AD8B46F
:0E059A00C78C03D09C53D8A4C78CC68A12000D
:0E05A800ACB202D00000FCD7ADC3ADFF120014
:0A05B600000E72B2010E006E12007A
:0C05C00072B201D0FDD7ADC373FF120072
:1005CC0074CF01F071A202D07198718801C000F053
:0205DC0012000B
:1005DE00AECF01F0ABA202D0AB98AB8801C000F059
:0205EE001200F9
:1005F000D38ED38CD38AD388D382D3800F01386B28
:10060000396B3A6B9394939894909396939A928AB9
:1006100094869488949AF28EF28C9D869E96040E0F
:100620000301996F800E9A6F100E9B6F9C6B8DDF8C
:100630009D8A9E9AA38AA49AB886B06ACF0EAF6E9E
:10064000AC8424DF7086766ACF0E756E72844BDFC1
:10065000030E0B6E080E0C6E770E0D6E0D2EFED770
:0A0660000C2EFCD70B2EFAD7120067
:10066A000900F5CFE6FF0006FBE10106F9E11200F9
:10067A0003019E51010A1DE1030E306E030E3A6E0C
:10068A000CD0010E306E15D0010E3A6E12D0010E4A
:10069A003B6E0FD0010E396E0CD09D51000AF1E06D
:1006AA009D51010AF1E09D51020AF1E09D51030AB0
:1006BA00F1E09E51000A04E1306A3A6A3B6A396AFB
:0206CA0012001C
:1006CC00A90E0301AB6F030EAC6F9EC3E9FF9FC372
:1006DC00EAFFEECFA2F3010E9E25E96E000E9F21DC
:1006EC00EA6EEECFA3F3020E9E25E96E000E9F215B
:1006FC00EA6EEECFA4F3030E9E25E96E000E9F2149
:10070C00EA6EEECF00F000C0A5F3040E9E25E96E54
:10071C00000E9F21EA6EEECFA6F3ABC3E1FFACC394
:10072C00E2FF00C0E6FF010EAB25E16E000EAC212E
:10073C00E26EA6C3E6FF9D51010A39E18A863A0EA4
:10074C00AD6F2CDFA2C3ADF329DFA3C3ADF326DF5E
:10075C00A4C3ADF323DFA5C3ADF320DFA6C3ADF374
:10076C001DDF0301A76BA86BAA51A85D02E1A9517B
:10077C00A75D0DE2A751A025E96EA851A121EA6E53
:10078C00EECFADF30BDF0301A74BA82BEDD70D0E6E
:10079C00AD6F04DF0A0E0301AD6F00DF0301AD6B1B
:1007AC00FDDEC8DE0050000A01E1FBD78A9603018A
:1007BC009D51020A39E18A8A3A0EAD6FFBDEA2C363
:1007CC00ADF3F8DEA3C3ADF3F5DEA4C3ADF3F2DEF7
:1007DC00A5C3ADF3EFDEA6C3ADF3ECDE0301A76B4F
:1007EC00A86BAA51A85D02E1A951A75D0DE2A75122
:1007FC00A025E96EA851A121EA6EEECFADF3DADEA9
:10080C000301A74BA82BEDD70D0EAD6FD3DE0A0E4F
:10081C000301AD6FCFDE0301AD6BCCDEC6DE005045
:0A082C00000A01E1FBD78A9A1200CE
:100836009DC3E9FF9EC3EAFFEECF3DF0010E030123
:100846009D25E96E000E9E21EA6EEECF3EF0020E69
:100856009D25E96E000E9E21EA6EEECF3FF0030E57
:100866009D25E96E000E9E21EA6EEECF40F0040E45
:100876009D25E96E000E9E21EA6EEECF41F08B803B
:0C088600850E0D6E0D2EFED78B9012001B
:10089200A00E186EA10E196EA20E1A6EA30E1B6E7A
:1008A200A40E1C6EA50E1D6EA60E1E6EA70E1F6E4A
:1008B200A80E206EA90E216E9ADE336A346A356A5A
:1008C200366A316A326A2E6A2F6A306A3A6A3B6A3B
:1008D200396A376A386A256A266A246A226A236A6A
:1008E2002C6A2D6A2B6A276A286A296A2A6A3C6A54
:1008F200606B03018B6B8C6B8B0E896F030E8A6F9F
:100902008A968A9A5F6A8B90819481988A968A9A4B
:02091200FFD70D
:020000040030CA
:0D000100281F3CFFBF81FF0FC00FE00F4024
:00000001FF
