:0400000093EF01F089
:1000080000C019F001C018F00BC017F00CC016F0B2
:100018000DC015F09EAA79D09E9A78D900C03AF002
:100028005150020A14E1000E375C02E13550365C8B
:100038000BE2400E3624E16E000E3720E26E3AC025
:10004800E6FF364A372A03D0516A010E286E51500E
:10005800000A0AE12850000A07E13A503A0A04E186
:10006800010E516E366A376A5150010A13E13A504F
:100078003A0A10E0000E375C02E1040E365C0AE230
:100088003B0E3624E16E000E3720E26E3AC0E6FFE2
:10009800364A372A5150010A18E1000E371802E192
:1000A800040E361812E13B50050A0BE13CC038F04B
:1000B8003DC039F03EC035F0020E516E366A376ADF
:1000C80004D0516A286A366A376A2850010A1DE145
:1000D8008B78060E0B6E130E0C6EAD0E0D6E0D2E7C
:1000E800FED70C2EFCD70B2EFAD7000000000A0E04
:1000F8003E6E010E586E3B0E596E000E5A6E1A0E69
:100108005B6E000E5C6E4ED8286A19C000F018C0ED
:1001180001F017C00BF016C00CF015C00DF011005F
:100128007E0E246E010E256E620E266E000E276E60
:10013800140E316E030E326E000E336E000E346EE6
:10014800FF0E2D6EFF0E2E6E000E2F6E000E306EFF
:100158008C0E296E010E2A6E000E2B6E000E2C6E70
:10016800AC8A900EAB6E948E949C9EAA03D0AECFB0
:0601780000F0FBD71200AD
:0E017E00ACB202D00000FCD762C0ADFF120090
:0A018C00000EACB2010E006E12006E
:0A019600000E72B2010E006E12009E
:0C01A00072B201D0FDD762C073FF1200E4
:1001AC0059C0E9FF5AC0EAFFEECF5DF0010E5924A9
:1001BC00E96E000E5A20EA6EEECF5EF0020E592464
:1001CC00E96E000E5A20EA6EEECF5FF0030E592452
:1001DC00E96E000E5A20EA6EEECF60F05850010A1C
:1001EC0032E18B8A3A0E0001626FC3DF5DC062F0B0
:1001FC00C0DF5EC062F0BDDF5FC062F0BADF60C01E
:10020C0062F0B7DF0001616B6051615D0CE261511E
:10021C005B24E96E000E5C20EA6EEECF62F0A9DF83
:10022C000001612BF1D70D0E626FA3DF0A0E0001E6
:10023C00626F9FDF0001626B9CDFA2DF0050000A3F
:10024C0001E1FBD78B9A5850020A32E18A8A3A0EA6
:10025C000001626F9FDF5DC062F09CDF5EC062F0E8
:10026C0099DF5FC062F085DF60C062F082DF000161
:10027C00616B6051615D0CE261515B24E96E000EB3
:10028C005C20EA6EEECF62F085DF0001612BF1D7C6
:10029C000D0E626F7FDF0A0E0001626F7BDF0001C3
:1002AC00626B78DF72DF0050000A01E1FBD78A9A9B
:0202BC0012002E
:1002BE000900F5CFE6FF0006FBE10106F9E11200A9
:1002CE00D38ED38CD38AD388D382D3800F01386B4D
:1002DE00396B3A6B9498949AF28EF28C9D8A9E9A10
:1002EE00B886B06ACF0EAF6EAC8417DF030E0B6EFE
:1002FE00080E0C6E770E0D6E0D2EFED70C2EFCD743
:06030E000B2EFAD71200CD
:10031400AECF01F0ABA202D0AB98AB8801C000F025
:020324001200C5
:100326000A0E1A6E0B0E1B6E0C0E1C6E0D0E1D6E3B
:100336000E0E1E6E0F0E1F6E100E206E110E216E0B
:10034600120E226E130E236EBFDF566A576A546A68
:10035600556A4F6A506A526A536A516A286A3A6AFB
:10036600366A376A386A396A356A8B9A8A9A8B8806
:02037600FFD7AF
:020000040030CA
:0D000100281F3CFFBF81FF0FC00FE00F4024
:00000001FF
