:04000000A5EF01F077
:1000080000C019F001C018F00BC017F00CC016F0B2
:100018000DC015F09EAA8BD09E9A8AD900C03AF0DE
:100028003750020A14E1000E3C5C02E125503B5CAB
:100038000BE2490E3B24E16E000E3C20E26E3AC012
:10004800E6FF3B4A3C2A03D0376A010E3F6E375021
:10005800000A0AE13F50000A07E13A503A0A04E16F
:10006800010E376E3B6A3C6A3750010A13E13A5079
:100078003A0A10E0000E3C5C02E1040E3B5C0AE226
:10008800400E3B24E16E000E3C20E26E3AC0E6FFD3
:100098003B4A3C2A3750010A18E1000E3C1802E19D
:1000A800040E3B1812E14050050A0BE141C032F042
:1000B80042C024F043C025F0020E376E3B6A3C6A0A
:1000C80004D0376A3F6A3B6A3C6A3F50010A2FE115
:1000D8008B78060E0B6E130E0C6EAD0E0D6E0D2E7C
:1000E800FED70C2EFCD70B2EFAD70000000032509A
:1000F800040A0CE0010E586E400E596E000E5A6E3E
:10010800490E5B6E000E5C6E5FD810D02450020A58
:100118000DE10A0E436E010E586E400E596E000E28
:100128005A6E1A0E5B6E000E5C6E4ED83F6A19C08E
:1001380000F018C001F017C00BF016C00CF015C085
:040148000DF01100A5
:10014C00A20E2E6E010E2F6E620E306E000E316EF0
:10015C00380E266E030E276E000E286E000E296ECA
:10016C00FF0E2A6EFF0E2B6E000E2C6E000E2D6EE7
:10017C00B00E456E010E466E000E476E000E486EB8
:10018C00AC8A900EAB6E948E949C9EAA03D0AECF8C
:06019C0000F0FBD7120089
:0E01A200ACB202D00000FCD762C0ADFF12006C
:0A01B000000EACB2010E006E12004A
:0A01BA00000E72B2010E006E12007A
:0C01C40072B201D0FDD762C073FF1200C0
:1001D00059C0E9FF5AC0EAFFEECF5DF0010E592485
:1001E000E96E000E5A20EA6EEECF5EF0020E592440
:1001F000E96E000E5A20EA6EEECF5FF0030E59242E
:10020000E96E000E5A20EA6EEECF60F05850010AF7
:1002100032E18B8A3A0E0001626FC3DF5DC062F08B
:10022000C0DF5EC062F0BDDF5FC062F0BADF60C0F9
:1002300062F0B7DF0001616B6051615D0CE26151FA
:100240005B24E96E000E5C20EA6EEECF62F0A9DF5F
:100250000001612BF1D70D0E626FA3DF0A0E0001C2
:10026000626F9FDF0001626B9CDFA2DF0050000A1B
:1002700001E1FBD78B9A5850020A32E18B8A3A0E81
:100280000001626F9FDF5DC062F09CDF5EC062F0C4
:1002900099DF5FC062F085DF60C062F082DF00013D
:1002A000616B6051615D0CE261515B24E96E000E8F
:1002B0005C20EA6EEECF62F085DF0001612BF1D7A2
:1002C0000D0E626F7FDF0A0E0001626F7BDF00019F
:1002D000626B78DF72DF0050000A01E1FBD78B9A76
:0202E00012000A
:1002E2000900F5CFE6FF0006FBE10106F9E1120085
:1002F200D38ED38CD38AD388D382D3800F01386B29
:10030200396B3A6B9498949AF28EF28C9D8A9E9AEB
:10031200B886B06ACF0EAF6EAC8417DF030E0B6ED9
:10032200080E0C6E770E0D6E0D2EFED70C2EFCD71E
:060332000B2EFAD71200A9
:10033800AECF01F0ABA202D0AB98AB8801C000F001
:020348001200A1
:10034A00B00E1A6EB10E1B6EB20E1C6EB30E1D6E7F
:10035A00B40E1E6EB50E1F6EB60E206EB70E216E4F
:10036A00B80E226EB90E236EBFDF3D6A3E6A356A49
:10037A00366A336A346A386A396A376A3F6A3A6A65
:10038A003B6A3C6A326A246A256A8B9A8B88FFD751
:020000040030CA
:0D000100281F3CFFBF81FF0FC00FE00F4024
:00000001FF
