:0400000052EF02F0C9
:1000080000C019F001C018F00BC017F00CC016F0B2
:100018000DC015F09EAADDD09E9A37DA00C03AF0DE
:100028003D50020A14E126503C5C02E125503B5C3D
:100038000BE2120E3B24E16E030E3C20E26E3AC046
:10004800E6FF3B4A3C2A03D03D6A010E3E6E3D5016
:10005800000A0AE13E50000A07E13A503A0A04E170
:10006800010E3D6E3B6A3C6A3D50010A13E13A506D
:100078003A0A10E0000E3C5C02E1050E3B5C0AE225
:100088003F0E3B24E16E000E3C20E26E3AC0E6FFD4
:100098003B4A3C2A3D50010A24E1000E3C1802E18B
:1000A800050E3B181EE13F50050A17E140C031F02C
:1000B80041C024F02FC0E1FF30C0E2FF42C0E6FF9C
:1000C800010E2F24E16E000E3020E26E43C0E6FFE1
:1000D800020E3D6E3B6A3C6A04D03D6A3E6A3B6A4A
:1000E8003C6A3E50010AD8A474D08B78060E0B6E79
:1000F800130E0C6EAD0E0D6E0D2EFED70C2EFCD70A
:100108000B2EFAD7000000003150020A1EE1050E3E
:10011800256E000E266E2FC0E9FF30C0EAFFEECF35
:1001280042F0010E2F24E96E000E3020EA6EEECF69
:1001380043F0010E0301276F3F0E286F000E296F51
:10014800120E2A6F030E2B6F66D83150040A40E155
:100158002450020A1EE10A0E256E000E266E2FC0DC
:10016800E9FF30C0EAFFEECF42F0010E2F24E96E1E
:10017800000E3020EA6EEECF43F0010E0301276F28
:100188003F0E286F000E296F1A0E2A6F000E2B6F74
:1001980042D82450030A1CE1BC0E256E020E266EBE
:1001A8002FC0E9FF30C0EAFFEECF42F0010E2F2446
:1001B800E96E000E3020EA6EEECF43F0BC0E03016C
:1001C800216F020E226F3F0E236F000E246F2FD96E
:1001D8003E6A19C000F018C001F017C00BF016C035
:0801E8000CF015C00DF0110030
:0A01F000000EACB2010E006E12000A
:0E01FA00ACB202D00000FCD737C3ADFF12003C
:0A020800000E72B2010E006E12002B
:0C02120072B201D0FDD737C373FF120099
:10021E00330E0301356F030E366F28C3E9FF29C372
:10022E00EAFFEECF2CF3010E2825E96E000E2921F0
:10023E00EA6EEECF2DF3020E2825E96E000E29216F
:10024E00EA6EEECF2EF3030E2825E96E000E29215D
:10025E00EA6EEECF00F000C02FF3040E2825E96EF3
:10026E00000E2921EA6EEECF30F335C3E1FF36C31F
:10027E00E2FF00C0E6FF010E3525E16E000E3621CD
:10028E00E26E30C3E6FF2751010A39E18B8A3A0E3E
:10029E00376FACDF2CC337F3A9DF2DC337F3A6DFDF
:1002AE002EC337F3A3DF2FC337F3A0DF30C337F3EB
:1002BE009DDF0301316B326B3451325D02E13351FC
:1002CE00315D0DE231512A25E96E32512B21EA6E54
:1002DE00EECF37F38BDF0301314B322BEDD70D0E03
:1002EE00376F84DF0A0E0301376F80DF0301376B30
:1002FE007DDF77DF0050000A01E1FBD78B9A030107
:10030E002751020A39E18B8A3A0E376F7BDF2CC3F5
:10031E0037F378DF2DC337F375DF2EC337F372DF74
:10032E002FC337F36FDF30C337F36CDF0301316B4D
:10033E00326B3451325D02E13351315D0DE2315198
:10034E002A25E96E32512B21EA6EEECF37F35ADFB2
:10035E000301314B322BEDD70D0E376F53DF0A0EE3
:10036E000301376F4FDF0301376B4CDF46DF005061
:0A037E00000A01E1FBD78B9A120080
:10038800FA0E276E010E286E370E296E030E2A6E9E
:10039800920E2B6E040E2C6E000E2D6E000E2E6E1D
:1003A800FF0E03010A6FFF0E0B6F000E0C6F000E9D
:1003B8000D6FF00E0E6F010E0F6F000E106F000E16
:1003C800116FAC8A900EAB6E948E949C9EAA03D04B
:0803D800AECF00F0FBD71200CC
:1003E000D38ED38CD38AD388D382D3800F01386B3A
:1003F000396B3A6B9498949AF28EF28C9D8A9E9AFD
:10040000B886B06ACF0EAF6EAC84BEDF030E0B6E43
:10041000080E0C6E770E0D6E0D2EFED70C2EFCD72F
:060420000B2EFAD71200BA
:100426000900F5CFE6FF0006FBE10106F9E112003F
:100436000301256B266B326A336A2251335C02E173
:100446002151325C17E2440E3224E16E000E332055
:10045600E26E25C3E6FF254B262B000E006E2651C5
:10046600005C02E12551FF0802E2256B266B324A49
:10047600332AE3D7010E276F23C328F324C329F3B6
:0C048600440E2A6F000E2B6FC7DE120020
:10049200AECF01F0ABA202D0AB98AB8801C000F0A6
:0204A200120046
:1004A4000B0E1A6E0B0E1B6E0B0E1C6E0B0E1D6EBE
:1004B4000B0E1E6E0B0E1F6E0B0E206E0B0E216E9E
:1004C4000B0E226E050E236E89DF346A356A326A9A
:1004D400336A386A396A366A376A3D6A3E6A3A6A02
:1004E4003B6A3C6A316A246A256A266A250E2F6EA5
:0A04F400000E306E8B9A8B88FFD744
:020000040030CA
:0D000100281F3CFFBF81FF0FC00FE00F4024
:00000001FF
