:0400000073EF01F0A9
:1000080000C016F00DC015F09EA6A3D09E96C9CFCD
:1000180025F01C50000A0EE12550A00A0BE1000152
:100028006E6B010E6F6FC9D8010E1D6E000E1E6E2D
:1000380026C0C9FF1C50010A10E12550A00A0DE096
:100048002550F00A0AE0260E1D24E96E000E1E2037
:10005800EA6EEECFC9FF1D4A1E2A1C50010A07E1AD
:100068002550F00A04E100016E6B6F6BA6D8195099
:10007800000A0BE12550A10A08E100011D6A1E6A69
:10008800010E6E6F010E6F6F98D81950010A10E1BA
:100098002550A10A0DE02550F10A0AE0520E1D2450
:1000A800E16E000E1E20E26E25C0E6FF1D4A1E2AE4
:1000B8001950010A4EE12550F10A4BE1236A246ADE
:1000C800000E245C02E1040E235C11E24D0E232491
:1000D800E16E000E2420E26E520E2324E96E000E1B
:1000E8002420EA6EEECFE6FF234A242AE9D7236AC2
:1000F800246A000E245C02E15050235C17E23E0E95
:100108002324E16E000E2420E26E040E2324006EE8
:10011800000E2420016E520E0024E96E000E01200C
:10012800EA6EEECFE6FF234A242AE3D74250E50AD7
:100138000BE1000181744D0E6E6F000E6F6F3E0E65
:10014800706F000E716F54D80001010E6E6F6F6BE7
:0C01580034D816C000F015C00DF01100E6
:10016400C69AFF0E0001666FFF0E676FFF0E686F81
:10017400FF0E696FFF0E3A6EFF0E3B6EFF0E3C6E74
:10018400FF0E3D6E949A6A51040A02E1948601D0EE
:1001940094969488C66AC79CC79E6A51C6126C51CD
:1001A400C6126B51C7126C5305E06D51000AD8B4E6
:0E01B400C78C03D06D53D8A4C78CC68A120026
:1001C20000016F51010A11E1030E1C6E030E196E3C
:1001D20006D0010E1C6E09D0010E196E06D06E51AA
:1001E200000AF7E06E51010AF7E06F51000A02E1DE
:0601F2001C6A196A1200EC
:1001F8006EC0E9FF6FC0EAFFEECF26F0010E0001E6
:100208006E25E96E000E6F21EA6EEECF27F0020E22
:100218006E25E96E000E6F21EA6EEECF28F0030E10
:100228006E25E96E000E6F21EA6EEECF29F0236A83
:10023800246A030E6E25D96E000E6F21DA6EDECFAA
:1002480001F0000E245C02E10150235C17E2040E69
:100258002324006E000E2420016E260E0024E16E79
:10026800000E0120E26E23507025E96E24507121A2
:10027800EA6EEECFE6FF234A242ADBD78B80850E71
:0A0288000D6E0D2EFED78B901200B4
:10029200D38ED38CD38AD388D382D3800F01386B89
:1002A200396B3A6B93949490928A94869488949A38
:1002B200F28EF28C9D86040E00016A6F800E6B6FC7
:1002C200100E6C6F6D6B4DDF9E96030E0B6E080E5B
:1002D2000C6E770E0D6E0D2EFED70C2EFCD70B2E4C
:0402E200FAD7120035
:1002E600D5DF1D6A1E6A236A246A216A226A1F6A8A
:1002F600206A1C6A196A186A176A1B6A1A6A8B903E
:040306008184FFD718
:020000040030CA
:0D000100281F3CFFBF81FF0FC00FE00F4024
:00000001FF
