:0400000041EF03F0D9
:1000080000C017F001C016F00DC015F09EA6E4D090
:100018009E96C9CF34F081743650000A0EE13450F0
:10002800A00A0BE137C0C9FF010E306E000E316E19
:1000380000019B6B010E9C6F05DB3650010A10E135
:100048003450A00A0DE03450F00A0AE0370E30248C
:10005800E96E000E3120EA6EEECFC9FF304A312A30
:100068003650010A07E13450F00A04E100019B6BA5
:100078009C6BE8DA3550000A0BE13450A10A08E11C
:100088000001306A316A010E9B6F010E9C6FDADA4B
:100098003550010A10E13450A10A0DE03450F10A3C
:1000A8000AE04B0E3024E16E000E3120E26E34C0BF
:1000B800E6FF304A312A3550010AD8A48DD0345091
:1000C800F10AD8A489D0326A336A000E335C02E19F
:1000D800040E325C11E2810E3224E16E000E3320F0
:1000E800E26E4B0E3224E96E000E3320EA6EEECF3C
:1000F800E6FF324A332AE9D7326A336A000E335CA4
:1001080003E100018451325C17E2860E3224E16E6D
:10011800000E3320E26E040E3224006E000E3320EF
:10012800016E4B0E0024E96E000E0120EA6EEECF40
:10013800E6FF324A332AE2D7000181C025F082C0A7
:1001480024F083C022F08251040A18E0010E9B6F4C
:10015800810E9C6F000E9D6F860E9E6F000E9F6F26
:10016800E8D9020E00019B6F810E9C6F000E9D6FF7
:10017800860E9E6F000E9F6FDCD929D02250010A8F
:100188000EE181740A0E0001846F810E9B6F000ED0
:100198009C6F180E9D6F000E9E6F31D918D000010C
:1001A800010E9B6F810E9C6F000E9D6F860E9E6FD9
:1001B800000E9F6FBED9020E00019B6F810E9C6FCF
:1001C800000E9D6F860E9E6F000E9F6FB2D9010EB6
:1001D80000019B6F9C6B36DA9EAA6AD09E9A5CD906
:1001E80000C02BF02350020A14E1000E295C02E142
:1001F8005F50285C0BE26D0E2824E16E000E29206A
:10020800E26E2BC0E6FF284A292A03D0236A010E92
:100218002A6E2350000A0AE12A50000A07E12B50EF
:100228003A0A04E1010E236E286A296A2350010A5A
:1002380013E12B503A0A10E0000E295C02E1040E8B
:10024800285C0AE27C0E2824E16E000E2920E26E6A
:100258002BC0E6FF284A292A2350010A1AE1000E7A
:10026800291802E1040E281814E100017C51251810
:100278000CE17DC026F07EC027F07FC05FF0256AC4
:10028800286A296A020E236E04D0236A2A6A286A19
:10029800296A2A50010A0CE1000181747C0E9B6FC7
:1002A800000E9C6F6D0E9D6F000E9E6FA8D82A6A77
:1002B800A4BAA49A17C000F016C001F015C00DF03A
:0202C800110023
:1002CA00E20E0001936F030E946FA50E956F000E58
:1002DA00966FA00E656F040E666F000E676F000EB4
:1002EA00686FFF0E696FFF0E6A6F000E6B6F000E6C
:1002FA006C6F7A0E616F030E626F000E636F000EF1
:10030A00646FAC8A900EAB6E948E949C9EAA03D0B6
:08031A00AECF00F0FBD712008A
:10032200FA0E0001936F030E946FA50E956F000EE7
:10033200966FFF0E656FFF0E666F000E676F000E01
:10034200686FFF0E696FFF0E6A6F000E6B6F000E13
:100352006C6FF00E616F030E626F000E636F000E22
:10036200646F728A900E716E938E939CA4AA03D0CE
:0803720074CF00F0FBD712006C
:0A037A00000EACB2010E006E12007E
:10038400C69AFF0E00018B6FFF0E8C6FFF0E8D6FF0
:10039400FF0E8E6FFF0E8F6FFF0E906FFF0E916F2B
:1003A400FF0E926F949A9751040A02E1948601D049
:1003B40094969488C66AC79CC79E9751C612995151
:1003C400C6129851C712995305E09A51000AD8B43D
:0E03D400C78C03D09A53D8A4C78CC68A1200D7
:0E03E200ACB202D00000FCD7A5C0ADFF1200E7
:0A03F000000E72B2010E006E120042
:0C03FA0072B201D0FDD7A5C073FF120045
:100406009BC0E9FF9CC0EAFFEECF37F0010E00016A
:100416009B25E96E000E9C21EA6EEECF38F0020EA7
:100426009B25E96E000E9C21EA6EEECF39F0030E95
:100436009B25E96E000E9C21EA6EEECF3AF0326AF9
:10044600336A030E9B25D96E000E9C21DA6EDECF31
:1004560001F0000E335C02E10150325C17E2040E3B
:100466003224006E000E3320016E370E0024E16E3A
:10047600000E0120E26E32509D25E96E33509E211A
:10048600EA6EEECFE6FF324A332ADBD78B80850E43
:0A0496000D6E0D2EFED78B901200A4
:1004A000AECF01F0ABA202D0AB98AB8801C000F098
:0204B000120038
:1004B200D38ED38CD38AD388D382D3800F01386B67
:1004C200396B3A6B939494909396939A928A94860A
:1004D2009488949AF28EF28C9D869E96040E000168
:1004E200976F800E986F100E996F9A6B4ADF9D8AF4
:1004F2009E9AA38AA49AB886B06ACF0EAF6EAC84D5
:10050200E3DE7086766ACF0E756E728409DF030EA3
:100512000B6E080E0C6E770E0D6E0D2EFED70C2E86
:08052200FCD70B2EFAD71200E2
:10052A000900F5CFE6FF0006FBE10106F9E112003A
:10053A009CC0E9FF9DC0EAFFEECFA0F0010E0001CA
:10054A009C25E96E000E9D21EA6EEECFA1F0020E07
:10055A009C25E96E000E9D21EA6EEECFA2F0030EF5
:10056A009C25E96E000E9D21EA6EEECFA3F09B5109
:10057A00010A31E18A863A0EA56F2EDFA0C0A5F0E6
:10058A002BDFA1C0A5F028DFA2C0A5F025DFA3C0FC
:10059A00A5F022DF0001A46BA351A45D0CE2A451D3
:1005AA009E25E96E000E9F21EA6EEECFA5F014DFBC
:1005BA000001A42BF1D70D0EA56F0EDF0A0E000164
:1005CA00A56F0ADF0001A56B07DFD2DE0050000A23
:1005DA0001E1FBD78A9600019B51020A31E18A8A1E
:1005EA003A0EA56F05DFA0C0A5F002DFA1C0A5F0F5
:1005FA00FFDEA2C0A5F0F0DEA3C0A5F0EDDE00018B
:10060A00A46BA351A45D0CE2A4519E25E96E000ED1
:10061A009F21EA6EEECFA5F0EBDE0001A42BF1D705
:10062A000D0EA56FE5DE0A0E0001A56FE1DE0001E1
:10063A00A56BDEDED8DE0050000A01E1FBD78A9AFC
:02064A0012009C
:10064C0000019C51010A11E1030E366E030E356E4A
:10065C0006D0010E366E09D0010E356E06D09B51B8
:10066C00000AF7E09B51010AF7E09C51000A02E1F5
:06067C00366A356A120027
:10068200A00E186EA10E196EA20E1A6EA30E1B6E8C
:10069200A40E1C6EA50E1D6EA60E1E6EA70E1F6E5C
:1006A200A80E206EA90E216E03DF306A316A326A0B
:1006B200336A2E6A2F6A2C6A2D6A366A356A346A60
:1006C200256A246A226A236A2A6A2B6A286A296AA4
:1006D200266A276A5F6A8A968A9A606B8B908184FF
:0606E2008A968A9AFFD7F8
:020000040030CA
:0D000100281F3CFFBF81FF0FC00FE00F4024
:00000001FF
