:04000000B9EF03F061
:1000080000C017F001C016F00DC015F09EA6E6D08E
:100018009E96C9CF38F02F50000A0EE13850A00A3A
:100028000BE13EC0C9FF010E326E000E336E0001B7
:10003800A06B010EA16FECDA2F50010A10E13850C5
:10004800A00A0DE03850F00A0AE03E0E3224E96EAC
:10005800000E3320EA6EEECFC9FF324A332A2F5002
:10006800010A07E13850F00A04E10001A06BA16B16
:10007800CFDA3650000A0DE13850A10A0AE1000132
:10008800326A336A010EA06F010EA16FC1DA818452
:1000980081883650010A10E13850A10A0DE0385025
:1000A800F10A0AE05E0E3224E16E000E3320E26EA1
:1000B80038C0E6FF324A332A3650010AD8A48ED017
:1000C8003850F10AD8A48AD0346A356A000E355CF3
:1000D80002E1040E345C11E2860E3424E16E000E57
:1000E8003520E26E5E0E3424E96E000E3520EA6E8D
:1000F800EECFE6FF344A352AE9D7346A356A000E6E
:10010800355C03E100018951345C17E28B0E34241D
:10011800E16E000E3520E26E040E3424006E000EEF
:100128003520016E5E0E0024E96E000E0120EA6E95
:10013800EECFE6FF344A352AE2D7000186C039F00F
:1001480087C037F088C02CF08751040A18E0010EE8
:10015800A06F860EA16F000EA26F8B0EA36F000E0C
:10016800A46F7ADA020E0001A06F860EA16F000E4E
:10017800A26F8B0EA36F000EA46F6EDA28D02C50DE
:10018800010A0DE10A0E0001896F860EA06F000EAC
:10019800A16F180EA26F000EA36FA8D918D0000186
:1001A800010EA06F860EA16F000EA26F8B0EA36FBB
:1001B800000EA46F51DA020E0001A06F860EA16F27
:1001C800000EA26F8B0EA36F000EA46F45DA010E0E
:1001D8000001A06FA16B1CDA819481989EAA6CD053
:1001E8009E9A7BD900C02BF02350020A15E1000E1D
:1001F800265C03E100019551255C0BE2720E252473
:10020800E16E000E2620E26E2BC0E6FF254A262A64
:1002180003D0236A010E246E2350000A0BE12450F8
:10022800000A08E12B503A0A05E1010E236E256AFF
:10023800266A81842350010A13E12B503A0A10E000
:10024800000E265C02E1040E255C0AE2810E2524DC
:10025800E16E000E2620E26E2BC0E6FF254A262A14
:100268002350010A1AE1000E261802E1040E25188F
:1002780014E10001815139180CE182C096F083C065
:1002880097F084C095F0396A256A266A020E236EB3
:1002980004D0236A246A256A266A2450010A0CE1DC
:1002A80000018194810EA06F000EA16F720EA26FE3
:1002B800000EA36F1BD9246AA4AA6CD0A49AC3D930
:1002C80000C029F02250020A15E1000E285C03E163
:1002D80000019551275C0BE2720E2724E16E000E97
:1002E8002820E26E29C0E6FF274A282A03D0226A7E
:1002F800010E2A6E2250000A0BE12A50000A08E17A
:1003080029503A0A05E1010E226E276A286A818877
:100318002250010A13E129503A0A10E0000E285C25
:1003280002E1040E275C0AE2810E2724E16E000E2A
:100338002820E26E29C0E6FF274A282A2250010A0F
:100348001AE1000E281802E1040E271814E1000132
:10035800815139180CE182C096F083C097F084C0AF
:1003680095F0396A276A286A020E226E04D0226A3A
:100378002A6A276A286A2A50010A0CE10001819832
:10038800810EA06F000EA16F720EA26F000EA36FF8
:10039800ADD82A6A17C000F016C001F015C00DF0DC
:0203A800110042
:1003AA00BE0E566E040E576EAA0E586E000E596E89
:1003BA00E20E5A6E040E5B6E000E5C6E000E5D6EEF
:1003CA00FF0E526EFF0E536E000E546E000E556EE7
:1003DA00560E3A6E040E3B6E000E3C6E000E3D6EDB
:1003EA00AC8A900EAB6E948E949C9EAA03D0AECF2C
:0603FA0000F0FBD7120029
:10040000D60E566E040E576EAA0E586E000E596E1A
:100410004E0E5A6E060E5B6E000E5C6E000E5D6E2A
:10042000FF0E526EFF0E536E000E546E000E556E90
:10043000CC0E3A6E040E3B6E000E3C6E000E3D6E0E
:10044000728A900E716E938E939CA4AA03D074CF7F
:0604500000F0FBD71200D2
:0A045600000EACB2010E006E1200A1
:10046000C69AFF0E0001986FFF0E996FFF0E9A6FEC
:10047000FF0E9B6FFF0E906FFF0E916FFF0E926F3E
:10048000FF0E936F949A9C51040A02E1948601D066
:1004900094969488C66AC79CC79E9C51C6129E516A
:1004A000C6129D51C7129E5305E09F51000AD8B451
:0E04B000C78C03D09F53D8A4C78CC68A1200F5
:0E04BE00ACB202D00000FCD7AAC0ADFF120005
:0A04CC00000E72B2010E006E120065
:0C04D60072B201D0FDD7AAC073FF120063
:1004E200AECF01F0ABA202D0AB98AB8801C000F056
:0204F2001200F6
:1004F400A0C0E9FFA1C0EAFFEECF3EF0010E00016B
:10050400A025E96E000EA121EA6EEECF3FF0020EA7
:10051400A025E96E000EA121EA6EEECF40F0030E95
:10052400A025E96E000EA121EA6EEECF41F0346AF7
:10053400356A030EA025D96E000EA121DA6EDECF36
:1005440001F0000E355C02E10150345C17E2040E48
:100554003424006E000E3520016E3E0E0024E16E40
:10056400000E0120E26E3450A225E96E3550A3211D
:10057400EA6EEECFE6FF344A352ADBD78B80850E50
:0A0584000D6E0D2EFED78B901200B5
:10058E00D38ED38CD38AD388D382D3800F01386B8A
:10059E00396B3A6B9394939894909396939A928A1C
:1005AE0094869488949AF28EF28C9D869E96040E72
:1005BE0000019C6F800E9D6F100E9E6F9F6B49DF2A
:1005CE009D8A9E9AA38AA49AB886B06ACF0EAF6E01
:1005DE00AC84E4DE7086766ACF0E756E728409DFA7
:1005EE00030E0B6E080E0C6E770E0D6E0D2EFED7D3
:0A05FE000C2EFCD70B2EFAD71200CA
:100608000900F5CFE6FF0006FBE10106F9E112005B
:100618000001A151010A11E1030E2F6E030E366E7F
:1006280006D0010E2F6E09D0010E366E06D0A051ED
:10063800000AF7E0A051010AF7E0A151000A02E11F
:060648002F6A366A120061
:10064E0074CF01F071A202D07198718801C000F0D0
:02065E00120088
:10066000A1C0E9FFA2C0EAFFEECFA5F0010E000194
:10067000A125E96E000EA221EA6EEECFA6F0020ED1
:10068000A125E96E000EA221EA6EEECFA7F0030EBF
:10069000A125E96E000EA221EA6EEECFA8F0A051CE
:1006A000010A31E18A863A0EAA6F09DFA5C0AAF0D5
:1006B00006DFA6C0AAF003DFA7C0AAF000DFA8C02B
:1006C000AAF0FDDE0001A96BA851A95D0CE2A951B9
:1006D000A325E96E000EA421EA6EEECFAAF0EFDEAC
:1006E0000001A92BF1D70D0EAA6FE9DE0A0E000159
:1006F000AA6FE5DE0001AA6BE2DEADDE0050000A63
:1007000001E1FBD78A960001A051020A31E18A8AF1
:100710003A0EAA6FE0DEA5C0AAF0DDDEA6C0AAF000
:10072000DADEA7C0AAF0D7DEA8C0AAF0D4DE0001A6
:10073000A96BA851A95D0CE2A951A325E96E000E91
:10074000A421EA6EEECFAAF0C6DE0001A92BF1D7F4
:100750000D0EAA6FC0DE0A0E0001AA6FBCDE0001FA
:10076000AA6BB9DEB3DE0050000A01E1FBD78A9A1A
:02077000120075
:10077200A00E186EA10E196EA20E1A6EA30E1B6E9B
:10078200A40E1C6EA50E1D6EA60E1E6EA70E1F6E6B
:10079200A80E206EA90E216EF9DE326A336A346A1F
:1007A200356A306A316A2D6A2E6A2F6A366A386A69
:1007B200396A376A2C6A236A226A246A2A6A2B6A8D
:1007C200296A256A266A276A286A0001966B976B4E
:1007D200956B8A968A9A946B8B90819481988A966B
:0407E2008A9AFFD719
:020000040030CA
:0D000100281F3CFFBF81FF0FC00FE00F4024
:00000001FF
