:0400000052EF02F0C9
:1000080000C017F001C016F00DC015F09EA6A0D0D4
:100018009E96C9CF30F081742750000A0DE1305008
:10002800A00A0AE131C0C9FF010E2A6E000E2B6E2C
:100038005E6A010E5F6E7ED92750010A10E13050CA
:10004800A00A0DE03050F00A0AE0310E2A24E96EC9
:10005800000E2B20EA6EEECFC9FF2A4A2B2A275022
:10006800010A06E13050F00A03E15E6A5F6A62D96C
:100078002F50000A0AE13050A10A07E12A6A2B6AC8
:10008800010E5E6E010E5F6E55D92F50010A10E108
:100098003050A10A0DE03050F10A0AE0450E2A243A
:1000A800E16E000E2B20E26E30C0E6FF2A4A2B2AB2
:1000B8002F50010A4DE13050F10A4AE12C6A2D6AAD
:1000C800000E2D5C02E1040E2C5C11E27D0E2C2446
:1000D800E16E000E2D20E26E450E2C24E96E000E16
:1000E8002D20EA6EEECFE6FF2C4A2D2AE9D72C6A9E
:1000F8002D6A000E2D5C03E1000180512C5C17E293
:10010800820E2C24E16E000E2D20E26E040E2C24AB
:10011800006E000E2D20016E450E0024E96E000EC3
:100128000120EA6EEECFE6FF2C4A2D2AE2D7000125
:100138007DC02EF081747D0E976F000E986F180E9B
:10014800996F000E9A6F10D9010E5E6E5F6AF2D831
:100158009EAA60D09E9A55D900C01DF01F50020A71
:1001680014E1000E235C02E12050225C0BE2690ED0
:100178002224E16E000E2320E26E1DC0E6FF224A13
:10018800232A03D01F6A010E1E6E1F50000A0AE1BF
:100198001E50000A07E11D503A0A04E1010E1F6EC5
:1001A800226A236A1F50010A13E11D503A0A10E01F
:1001B800000E235C02E1040E225C0AE2780E22247F
:1001C800E16E000E2320E26E1DC0E6FF224A232ABC
:1001D8001F50010A1AE1000E231802E1040E22182A
:1001E80014E1000178512E180CE179C024F07AC08E
:1001F80021F07BC020F02E6A226A236A020E1F6E4D
:1002080004D01F6A1E6A226A236A1E50010A02E18C
:1002180081741E6AA4BAA49A17C000F016C001F02F
:0602280015C00DF01100ED
:10022E00C69AFF0E0001876FFF0E886FFF0E896F53
:10023E00FF0E8A6FFF0E8B6FFF0E8C6FFF0E8D6F92
:10024E00FF0E8E6F949A9351040A02E1948601D0A8
:10025E0094969488C66AC79CC79E9351C6129551B0
:10026E00C6129451C712955305E09651000AD8B4A0
:0E027E00C78C03D09653D8A4C78CC68A120032
:10028C00FF0E00018F6FFF0E906FFF0E916FFF0E30
:10029C00926F0A0E616F040E626F000E636F000E98
:1002AC00646FFF0E656FFF0E666F000E676F000EBA
:1002BC00686FFF0E596EFF0E5A6E000E5B6E000ECD
:1002CC005C6EAC8A900EAB6E948E949C9EAA03D0FE
:0802DC00AECF00F0FBD71200C9
:1002E400FF0E00018F6FFF0E906FFF0E916FFF0ED8
:1002F400926FFF0E616FFF0E626F000E636F000E50
:10030400646FFF0E656FFF0E666F000E676F000E61
:10031400686FFF0E596EFF0E5A6E000E5B6E000E74
:100324005C6E728A900E716E938E939CA4AA03D015
:0803340074CF00F0FBD71200AA
:10033C005F50010A11E1030E276E030E2F6E06D0DB
:10034C00010E276E09D0010E2F6E06D05E50000AEA
:10035C00F7E05E50010AF7E05F50000A02E1276AFD
:04036C002F6A1200E2
:1003700097C0E9FF98C0EAFFEECF31F0010E00010F
:100380009725E96E000E9821EA6EEECF32F0020E4C
:100390009725E96E000E9821EA6EEECF33F0030E3A
:1003A0009725E96E000E9821EA6EEECF34F02C6AA4
:1003B0002D6A030E9725D96E000E9821DA6EDECFD6
:1003C00001F0000E2D5C02E101502C5C17E2040EDE
:1003D0002C24006E000E2D20016E310E0024E16EE3
:1003E000000E0120E26E2C509925E96E2D509A21C5
:1003F000EA6EEECFE6FF2C4A2D2ADBD78B80850EE6
:0A0400000D6E0D2EFED78B9012003A
:10040A00AECF01F0ABA202D0AB98AB8801C000F02E
:02041A001200CE
:10041C00D38ED38CD38AD388D382D3800F01386BFD
:10042C00396B3A6B939494909396939A928A9486A0
:10043C009488949AF28EF28C9D869E96040E0001FE
:10044C00936F800E946F100E956F966BEADE9D8AFB
:10045C009E9AA38AA49AB886B06ACF0EAF6EAC846B
:10046C000FDF7086766ACF0E756E728435DF030EE1
:10047C000B6E080E0C6E770E0D6E0D2EFED70C2E1D
:08048C00FCD70B2EFAD7120079
:100494000900F5CFE6FF0006FBE10106F9E11200D1
:1004A400E10E186EE20E196EE30E1A6EE40E1B6E68
:1004B400E50E1C6EB1DF2A6A2B6A2C6A2D6A286A43
:1004C400296A256A266A276A2F6A306A2E6A1F6A91
:1004D4001E6A1D6A226A236A246A216A206A8A962D
:0E04E4008A9A8B9081848A968A9A5D6AFFD7E5
:020000040030CA
:0D000100281F3CFFBF81FF0FC00FE00F4024
:00000001FF
