:040000005FEF00F0BE
:0A0008009EA602D09E96817411009E
:10001200C69AFF0E156EFF0E166EFF0E176EFF0EBE
:10002200186EFF0E196EFF0E1A6EFF0E1B6EFF0E7C
:100032001C6E949A1D50040A02E1948601D0949693
:100042009488C66AC79CC79E1D50C6121F50C6120E
:100052001E50C7121F5205E02050000AD8B4C78CA8
:0C00620003D02052D8A4C78CC68A12001C
:10006E00D38ED38CD38AD388D382D3800F01386BAF
:10007E00396B3A6B9394928A94869488949AF28E02
:10008E00F28C9D86040E1D6E800E1E6E100E1F6E5F
:10009E00206AB8DF9E96030E0B6E080E0C6E770E5E
:1000AE000D6E0D2EFED70C2EFCD70B2EFAD712008E
:0600BE00D7DF8184FFD7AB
:020000040030CA
:0D000100281F3CFFBF81FF0FC00FE00F4024
:00000001FF
