:04000000B8EF00F065
:1000080000C015F09EA63DD09E96C9CF34F01A5078
:10001800000A0AE13450A10A07E1010E3B6E010E05
:100028003C6E60D81B6A1C6A1A50010A10E13450F1
:10003800A10A0DE03450F10A0AE02A0E1B24E16EF1
:10004800000E1C20E26E34C0E6FF1B4A1C2A1A5020
:10005800010A17E13450F10A14E12AC019F02BC043
:1000680021F02CC035F02DC036F02D50020A05E1E4
:10007800196A216A356A366A8174010E3B6E3C6AD8
:0800880031D815C000F0110091
:10009000C69AFF0E226EFF0E236EFF0E246EFF0E19
:1000A000256EFF0E266EFF0E276EFF0E286EFF0ECA
:1000B000296E949A3750040A02E1948601D09496EE
:1000C0009488C66AC79CC79E3750C6123950C6125C
:1000D0003850C712395205E03A50000AD8B4C78CDC
:0C00E00003D03A52D8A4C78CC68A120084
:1000EC003C50010A11E1030E166E030E1A6E06D077
:1000FC00010E166E09D0010E1A6E06D03B50000A86
:10010C00F7E03B50010AF7E03C50000A02E1166AA6
:04011C001A6A120049
:10012000D38ED38CD38AD388D382D3800F01386BFC
:10013000396B3A6B9394928A94869488949AF28E4F
:10014000F28C9D86040E376E800E386E100E396E5E
:100150003A6A9EDF9E96030E0B6E080E0C6E770EAB
:100160000D6E0D2EFED70C2EFCD70B2EFAD71200DB
:10017000D7DF1B6A1C6A1F6A206A1D6A1E6A176A1B
:10018000186A166A1A6A196A216A356A366A818497
:02019000FFD797
:020000040030CA
:0D000100281F3CFFBF81FF0FC00FE00F4024
:00000001FF
