:040000000BEF03F00F
:1000080000C016F00DC015F09EA6A4D09E96C9CFCC
:100018003EF02950000A0EE13E50A00A0BE1000113
:10002800986B010E996FC6D9010E246E000E256ECD
:100038002AC0C9FF2950010A10E13E50A00A0DE06C
:100048003E50F00A0AE02A0E2424E96E000E25200C
:10005800EA6EEECFC9FF244A252A2950010A07E192
:100068003E50F00A04E10001986B996BA3D928501F
:10007800000A0BE13E50A10A08E10001246A256A42
:10008800010E986F010E996F95D92850010A10E159
:100098003E50A10A0DE03E50F10A0AE06E0E2424FB
:1000A800E16E000E2520E26E3EC0E6FF244A252AB6
:1000B8002850010A4FE13E50F10A4CE1266A276AAE
:1000C800000E275C02E1040E265C11E2820E262453
:1000D800E16E000E2720E26E6E0E2624E96E000EF9
:1000E8002720EA6EEECFE6FF264A272AE9D7266AB6
:1000F800276A000E275C03E100018551265C17E2A0
:100108005F0E2624E16E000E2720E26E040E2624E0
:10011800006E000E2720016E6E0E0024E96E000EA0
:100128000120EA6EEECFE6FF264A272AE2D7000131
:1001380082C019F0010E986F820E996F000E9A6FA7
:100148005F0E9B6F000E9C6FD9D9010E0001986F4E
:10015800996B30D99EAA80D09E9A23D900C01AF0F4
:100168001750020A14E1000E1E5C02E11C501D5CCF
:100178000BE24B0E1D24E16E000E1E20E26E1AC02B
:10018800E6FF1D4A1E2A03D0176A010E186E175083
:10019800000A0AE11850000A07E11A503A0A04E175
:1001A800010E176E1D6A1E6A1750010A13E11A50D4
:1001B8003A0A10E0000E1E5C02E1040E1D5C0AE221
:1001C8005A0E1D24E16E000E1E20E26E1AC0E6FFD4
:1001D8001D4A1E2A1750010A18E1000E1E1802E1D6
:1001E800040E1D1812E15A5019180BE15BC01FF0DC
:1001F8005CC01BF05DC01CF0020E176E1D6A1E6A03
:1002080004D0176A186A1D6A1E6A1850010A24E188
:100218008174246A256A000E255C02E10A0E245CBA
:100228000CE24B0E2424D96E000E2520DA6EDE5027
:1002380000019327244A252AEED700019351910AF9
:100248000AE15A0E986F000E996F4B0E9A6F000EC6
:100258009B6F07D9936B186AA4BAA49A16C000F0CA
:0602680015C00DF01100AD
:10026E00C60E0001876F020E886FA20E896F000EF8
:10027E008A6FFF0E436EFF0E446E000E456E000E2B
:10028E00466EFF0E476EFF0E486E000E496E000E54
:10029E004A6E420E3F6E030E406E000E416E000E11
:1002AE00426E728A900E716E938E939CA4AA03D0A6
:0802BE0074CF00F0FBD7120021
:0C02C60072B201D0FDD7A2C073FF12007D
:0A02D200000EACB2010E006E120027
:1002DC00340E0001876F030E886FA20E896F000E1B
:1002EC008A6FAA0E436E030E446E000E456E000E0E
:1002FC00466EFF0E476EFF0E486E000E496E000EE6
:10030C004A6ED20E3F6E020E406E000E416E000E13
:10031C00426EAC8A900EAB6E948E949C9EAA03D0C7
:08032C00AECF00F0FBD7120078
:0E033400ACB202D00000FCD7A2C0ADFF120098
:0A034200000E72B2010E006E1200F0
:10034C00C69AFF0E00018B6FFF0E8C6FFF0E8D6F28
:10035C00FF0E8E6FFF0E8F6FFF0E906FFF0E916F63
:10036C00FF0E926F949A9451040A02E1948601D084
:10037C0094969488C66AC79CC79E9451C61296518F
:10038C00C6129551C712965305E09751000AD8B47E
:0E039C00C78C03D09753D8A4C78CC68A120012
:1003AA00AECF01F0ABA202D0AB98AB8801C000F08F
:0203BA0012002F
:1003BC0000019951010A11E1030E296E030E286EFA
:1003CC0006D0010E296E09D0010E286E06D0985168
:1003DC00000AF7E09851010AF7E09951000A02E18E
:0603EC00296A286A1200D4
:1003F200D38ED38CD38AD388D382D3800F01386B28
:10040200396B3A6B939494909396939A928A9486CA
:100412009488949AF28EF28C9D869E96040E000128
:10042200946F800E956F100E966F976B8EDF9D8A7C
:100432009E9AA38AA49AB886B06ACF0EAF6EAC8495
:100442004CDF7086766ACF0E756E72840FDF030EF4
:100452000B6E080E0C6E770E0D6E0D2EFED70C2E47
:08046200FCD70B2EFAD71200A3
:10046A0098C0E9FF99C0EAFFEECF2AF0010E000119
:10047A009825E96E000E9921EA6EEECF2BF0020E56
:10048A009825E96E000E9921EA6EEECF2CF0030E44
:10049A009825E96E000E9921EA6EEECF2DF0266AB4
:1004AA00276A030E9825D96E000E9921DA6EDECFDF
:1004BA0001F0000E275C02E10150265C17E2040EEF
:1004CA002624006E000E2720016E2A0E0024E16EFB
:1004DA00000E0120E26E26509A25E96E27509B21D4
:1004EA00EA6EEECFE6FF264A272ADBD78B80850EF7
:0A04FA000D6E0D2EFED78B90120040
:1005040099C0E9FF9AC0EAFFEECF9DF0010E000109
:100514009925E96E000E9A21EA6EEECF9EF0020E46
:100524009925E96E000E9A21EA6EEECF9FF0030E34
:100534009925E96E000E9A21EA6EEECFA0F098514B
:10054400010A31E18A863A0EA26FF2DE9DC0A2F062
:10055400EFDE9EC0A2F0ECDE9FC0A2F0E9DEA0C0F8
:10056400A2F0E6DE0001A16BA051A15D0CE2A15155
:100574009B25E96E000E9C21EA6EEECFA2F0D8DE38
:100584000001A12BF1D70D0EA26FD2DE0A0E0001DD
:10059400A26FCEDE0001A26BCBDE99DE0050000A12
:1005A40001E1FBD78A9600019851020A31E18A8A57
:1005B4003A0EA26F86DE9DC0A2F083DE9EC0A2F03A
:1005C40080DE9FC0A2F0B4DEA0C0A2F0B1DE0001C4
:1005D400A16BA051A15D0CE2A1519B25E96E000E17
:1005E4009C21EA6EEECFA2F06CDE0001A12BF1D7C4
:1005F4000D0EA26F66DE0A0E0001A26F62DE00011C
:10060400A26B5FDE9CDE0050000A01E1FBD78A9AF0
:020614001200D2
:10061600EDDE246A256A266A276A206A216A226A2A
:10062600236A296A286A196A176A186A1A6A1D6A81
:100636001E6A1F6A1B6A1C6A8A968A9A8B90818434
:080646008A968A9A936BFFD794
:020000040030CA
:0D000100281F3CFFBF81FF0FC00FE00F4024
:00000001FF
