:04000000D7EF00F046
:1000080000C015F09EA65CD09E96C9CF2AF0165067
:10001800000A0EE12A50A10A0BE11C6A1D6A196A3E
:10002800186A456A446A010E4A6E010E4B6E79D809
:100038001650010A10E12A50A10A0DE02A50F10ACF
:100048000AE03A0E1C24E16E000E1D20E26E2AC062
:10005800E6FF1C4A1D2A1650010A32E12A50F10A0D
:100068002FE13AC019F03BC018F03CC045F03DC044
:1000780044F0206A216A000E215C02E14450205CB1
:1000880017E22B0E2024E16E000E2120E26E040EF2
:100098002024006E000E2120016E3A0E0024E96E25
:1000A800000E0120EA6EEECFE6FF204A212AE3D7B0
:1000B8002C50EE0AD8B48174010E4A6E4B6A31D8BE
:0600C80015C000F011005C
:1000CE00C69AFF0E266EFF0E276EFF0E286EFF0ECF
:1000DE00296EFF0E226EFF0E236EFF0E246EFF0E94
:1000EE00256E949A4650040A02E1948601D09496A5
:1000FE009488C66AC79CC79E4650C6124850C61200
:10010E004750C712485205E04950000AD8B4C78C70
:0C011E0003D04952D8A4C78CC68A120036
:10012A004B50010A11E1030E176E030E166E06D02C
:10013A00010E176E09D0010E166E06D04A50000A3B
:10014A00F7E04A50010AF7E04B50000A02E1176A49
:04015A00166A12000F
:10015E00D38ED38CD38AD388D382D3800F01386BBE
:10016E00396B3A6B9394928A94869488949AF28E11
:10017E00F28C9D86040E466E800E476E100E486EF3
:10018E00496A9EDF9E96030E0B6E080E0C6E770E5E
:10019E000D6E0D2EFED70C2EFCD70B2EFAD712009D
:1001AE00D7DF1C6A1D6A206A216A1E6A1F6A1A6AD4
:1001BE001B6A176A166A196A186A456A446A818444
:0201CE00FFD759
:020000040030CA
:0D000100281F3CFFBF81FF0FC00FE00F4024
:00000001FF
