:04000000F9EF00F024
:1000080000C016F00DC015F09EA672D09E96C9CFFE
:1000180025F01850000A0AE12550A10A07E11D6AD7
:100028001E6A010E4F6E010E506E95D81850010AC7
:1000380010E12550A10A0DE02550F10A0AE0410E11
:100048001D24E16E000E1E20E26E25C0E6FF1D4A4B
:100058001E2A1850010A4CE12550F10A49E1236A89
:10006800246A000E245C02E1040E235C11E23D0EBA
:100078002324E16E000E2420E26E410E2324E96E53
:10008800000E2420EA6EEECFE6FF234A242AE9D7A1
:10009800236A246A000E245C02E14050235C17E2C4
:1000A8002E0E2324E16E000E2420E26E040E23247B
:1000B800006E000E2420016E410E0024E96E000E31
:1000C8000120EA6EEECFE6FF234A242AE3D72F5019
:1000D800EE0A0AE181743D0E4F6E000E506E2E0E30
:1000E800516E000E526E51D8010E4F6E506A33D8C1
:0A00F80016C000F015C00DF0110055
:10010200C69AFF0E2A6EFF0E2B6EFF0E2C6EFF0E8E
:100112002D6EFF0E266EFF0E276EFF0E286EFF0E4F
:10012200296E949A4B50040A02E1948601D0949667
:100132009488C66AC79CC79E4B50C6124D50C612C1
:100142004C50C7124D5205E04E50000AD8B4C78C2D
:0C01520003D04E52D8A4C78CC68A1200FD
:10015E005050010A11E1030E196E030E186E06D0EF
:10016E00010E196E09D0010E186E06D04F50000AFE
:10017E00F7E04F50010AF7E05050000A02E1196A09
:04018E00186A1200D9
:0E0192008B80850E0D6E0D2EFED78B90120009
:1001A000D38ED38CD38AD388D382D3800F01386B7C
:1001B000396B3A6B93949490928A94869488949A2B
:1001C000F28EF28C9D86040E4B6E800E4C6E100EDD
:1001D0004D6E4E6A96DF9E96030E0B6E080E0C6EE9
:1001E000770E0D6E0D2EFED70C2EFCD70B2EFAD7E8
:0201F0001200FB
:1001F200D6DF1D6A1E6A236A246A216A226A1F6A7E
:10020200206A196A186A176A1C6A1B6A1A6A8B9032
:040212008184FFD70D
:020000040030CA
:0D000100281F3CFFBF81FF0FC00FE00F4024
:00000001FF
