:0400000054EF00F0C9
:060008009EBA9E9A110051
:10000E00FF0E156EFF0E166EFF0E176EFF0E186E9C
:10001E00FF0E216EFF0E226E000E236E000E246E5A
:10002E00FF0E1D6EFF0E1E6E000E1F6E000E206E5A
:10003E00FF0E196EFF0E1A6E000E1B6E000E1C6E5A
:10004E00AC8A900EAB6E948E949C9EAA03D0AECFCB
:06005E0000F0FBD71200C8
:10006400D38ED38CD38AD388D382D3800F01396BB8
:100074003A6B9498949AF28EF28C9D8A9E9AB886E2
:10008400B06ACF0EAF6EAC84C0DF030E0B6E080EE9
:100094000C6E770E0D6E0D2EFED70C2EFCD70B2E8C
:0400A400FAD7120075
:1000A800DDDF8B888B78060E0B6E130E0C6EAD0E93
:1000B8000D6E0D2EFED70C2EFCD70B2EFAD7000096
:0600C8000000F0D7FFD795
:020000040030CA
:0D000100281F3CFFBF81FF0FC00FE00F4024
:00000001FF
